{
  "contractName": "Buyer",
  "abi": [
    {
      "inputs": [],
      "payable": false,
      "stateMutability": "nonpayable",
      "type": "constructor"
    },
    {
      "anonymous": false,
      "inputs": [
        {
          "indexed": false,
          "name": "OrderID",
          "type": "uint256"
        }
      ],
      "name": "OrderRaisedOrUpdated",
      "type": "event"
    },
    {
      "constant": false,
      "inputs": [
        {
          "name": "ProductName",
          "type": "bytes32"
        },
        {
          "name": "quantity",
          "type": "uint256"
        }
      ],
      "name": "purchaseProduct",
      "outputs": [],
      "payable": false,
      "stateMutability": "nonpayable",
      "type": "function"
    },
    {
      "constant": false,
      "inputs": [
        {
          "name": "OrderID",
          "type": "uint256"
        }
      ],
      "name": "recieveProduct",
      "outputs": [],
      "payable": false,
      "stateMutability": "nonpayable",
      "type": "function"
    },
    {
      "constant": true,
      "inputs": [
        {
          "name": "OrderID",
          "type": "uint256"
        }
      ],
      "name": "getOrderDetails",
      "outputs": [
        {
          "name": "",
          "type": "bytes32"
        },
        {
          "name": "",
          "type": "uint256"
        },
        {
          "name": "",
          "type": "bool"
        }
      ],
      "payable": false,
      "stateMutability": "view",
      "type": "function"
    },
    {
      "constant": true,
      "inputs": [],
      "name": "getNumberOfProductsPurchased",
      "outputs": [
        {
          "name": "",
          "type": "uint256"
        }
      ],
      "payable": false,
      "stateMutability": "view",
      "type": "function"
    },
    {
      "constant": true,
      "inputs": [],
      "name": "getNumberOfProductsReceived",
      "outputs": [
        {
          "name": "",
          "type": "uint256"
        }
      ],
      "payable": false,
      "stateMutability": "view",
      "type": "function"
    }
  ],
  "bytecode": "0x608060405234801561001057600080fd5b506040518060400160405280600181526020017f4a6f686e20536e6f770000000000000000000000000000000000000000000000815250600260008081526020019081526020016000206000820151816000015560208201518160010155905050610366806100806000396000f3fe608060405234801561001057600080fd5b5060043610610074576000357c0100000000000000000000000000000000000000000000000000000000900480630d1fb05a14610079578063788e72a5146100a7578063bbd8f0ae146100df578063ec7dd7bb146100fd578063fda0ced914610151575b600080fd5b6100a56004803603602081101561008f57600080fd5b810190808035906020019092919050505061016f565b005b6100dd600480360360408110156100bd57600080fd5b8101908080359060200190929190803590602001909291905050506101ea565b005b6100e76102c3565b6040518082815260200191505060405180910390f35b6101296004803603602081101561011357600080fd5b81019080803590602001909291905050506102cc565b6040518084815260200183815260200182151515158152602001935050505060405180910390f35b610159610330565b6040518082815260200191505060405180910390f35b60016000815480929190600101919050555060016003600083815260200190815260200160002060040160006101000a81548160ff0219169083151502179055507ffd4b9f33f750059f7f0fea80cc0091c7788f7b097feddbd26b1e87482cad21f3816040518082815260200191505060405180910390a150565b60008060008154809291906001019190505590506040518060a001604052808281526020016000815260200184815260200183815260200160001515815250600360008381526020019081526020016000206000820151816000015560208201518160010155604082015181600201556060820151816003015560808201518160040160006101000a81548160ff0219169083151502179055509050507ffd4b9f33f750059f7f0fea80cc0091c7788f7b097feddbd26b1e87482cad21f3816040518082815260200191505060405180910390a1505050565b60008054905090565b6000806000600360008581526020019081526020016000206002015460036000868152602001908152602001600020600301546003600087815260200190815260200160002060040160009054906101000a900460ff169250925092509193909250565b600060015490509056fea165627a7a7230582007ad4a926229c24058575d02643418c1613454f6764c6478f314e683b6102fa60029",
  "source": "pragma solidity ^0.5.7;\r\n// We have to specify what version of compiler this code will compile with\r\n\r\ncontract Buyer {\r\n\r\n  /* Events */\r\n  event OrderRaisedOrUpdated(uint OrderID);\r\n\r\n  struct AvailableBuyer {\r\n    uint BuyerId;\r\n    bytes32 BuyerName;\r\n  }\r\n\r\n  struct Order {\r\n    uint OrderID;\r\n    uint BuyerId;\r\n    bytes32 ProductName;\r\n    uint quantity;\r\n    bool status;\r\n  }\r\n\r\n  // STATE Variables.\r\n  uint numberOfProductsPurchased;\r\n  uint numberOfProductsReceived;\r\n\r\n  // Mappings \r\n  mapping (uint => AvailableBuyer) Buyers;\r\n  mapping (uint => Order) Orders;\r\n\r\n  /* Constructor */\r\n  constructor() public {\r\n      /* For the case of demo, adding a Buyer in constructor. You can take this idea and extend the contract to contain addBuyer section and hence maintain BuyerDB in the Blockchain! */\r\n      Buyers[0] = AvailableBuyer(1, \"John Snow\");\r\n  }\r\n\r\n  /* TRANSACTIONS */\r\n  function purchaseProduct(bytes32 ProductName, uint quantity) public {\r\n    uint OrderID = numberOfProductsPurchased++;\r\n    Orders[OrderID] = Order(OrderID, 0, ProductName, quantity, false);\r\n    emit OrderRaisedOrUpdated(OrderID);\r\n  }\r\n\r\n  function recieveProduct(uint OrderID) public {\r\n      numberOfProductsReceived++;\r\n      Orders[OrderID].status = true;\r\n      emit OrderRaisedOrUpdated(OrderID);\r\n  }\r\n\r\n  /* GETTERS */\r\n  function getOrderDetails(uint OrderID) view public returns (bytes32, uint, bool){\r\n    /*returns ProductName, quantity & completionStatus*/\r\n    return (Orders[OrderID].ProductName, Orders[OrderID].quantity, Orders[OrderID].status);\r\n  }\r\n\r\n  function getNumberOfProductsPurchased() view public returns (uint) {\r\n    return numberOfProductsPurchased;\r\n  }\r\n\r\n  function getNumberOfProductsReceived() view public returns (uint) {\r\n    return numberOfProductsReceived;\r\n  }\r\n\r\n}",
  "sourcePath": "D:/galaxy/src/blockchainend/contracts/Buyer.sol",
  "compiler": {
    "name": "solc",
    "version": "0.5.7+commit.6da8b019.Emscripten.clang"
  },
  "schemaVersion": "3.0.9",
  "updatedAt": "2020-01-31T16:15:39.471Z",
  "devdoc": {
    "methods": {}
  },
  "userdoc": {
    "methods": {}
  }
}