{
  "contractName": "DataStorage",
  "abi": [
    {
      "constant": false,
      "inputs": [
        {
          "name": "x",
          "type": "string"
        },
        {
          "name": "datenow",
          "type": "uint256"
        },
        {
          "name": "size",
          "type": "string"
        },
        {
          "name": "name",
          "type": "string"
        },
        {
          "name": "datatp",
          "type": "string"
        }
      ],
      "name": "set",
      "outputs": [],
      "payable": false,
      "stateMutability": "nonpayable",
      "type": "function"
    },
    {
      "constant": true,
      "inputs": [
        {
          "name": "id",
          "type": "uint256"
        }
      ],
      "name": "get",
      "outputs": [
        {
          "name": "",
          "type": "string"
        }
      ],
      "payable": false,
      "stateMutability": "view",
      "type": "function"
    },
    {
      "constant": true,
      "inputs": [
        {
          "name": "id",
          "type": "uint256"
        }
      ],
      "name": "getdates",
      "outputs": [
        {
          "name": "",
          "type": "uint256"
        }
      ],
      "payable": false,
      "stateMutability": "view",
      "type": "function"
    },
    {
      "constant": true,
      "inputs": [
        {
          "name": "id",
          "type": "uint256"
        }
      ],
      "name": "getsizes",
      "outputs": [
        {
          "name": "",
          "type": "string"
        }
      ],
      "payable": false,
      "stateMutability": "view",
      "type": "function"
    },
    {
      "constant": true,
      "inputs": [],
      "name": "getNbdata",
      "outputs": [
        {
          "name": "",
          "type": "uint256"
        }
      ],
      "payable": false,
      "stateMutability": "view",
      "type": "function"
    },
    {
      "constant": true,
      "inputs": [
        {
          "name": "id",
          "type": "uint256"
        }
      ],
      "name": "getdatatype",
      "outputs": [
        {
          "name": "",
          "type": "string"
        }
      ],
      "payable": false,
      "stateMutability": "view",
      "type": "function"
    },
    {
      "constant": true,
      "inputs": [
        {
          "name": "id",
          "type": "uint256"
        }
      ],
      "name": "getdataname",
      "outputs": [
        {
          "name": "",
          "type": "string"
        }
      ],
      "payable": false,
      "stateMutability": "view",
      "type": "function"
    }
  ],
  "bytecode": "0x6080604052600060015534801561001557600080fd5b50610cb6806100256000396000f3fe608060405234801561001057600080fd5b506004361061009a576000357c0100000000000000000000000000000000000000000000000000000000900480639a73b56a116100785780639a73b56a146101a6578063c86ebfb41461024d578063f37ee3d0146102f4578063f62b90321461057e5761009a565b80637a62286f1461009f5780638bba8851146100e15780639507d39a146100ff575b600080fd5b6100cb600480360360208110156100b557600080fd5b8101908080359060200190929190505050610625565b6040518082815260200191505060405180910390f35b6100e9610646565b6040518082815260200191505060405180910390f35b61012b6004803603602081101561011557600080fd5b8101908080359060200190929190505050610650565b6040518080602001828103825283818151815260200191508051906020019080838360005b8381101561016b578082015181840152602081019050610150565b50505050905090810190601f1680156101985780820380516001836020036101000a031916815260200191505b509250505060405180910390f35b6101d2600480360360208110156101bc57600080fd5b8101908080359060200190929190505050610709565b6040518080602001828103825283818151815260200191508051906020019080838360005b838110156102125780820151818401526020810190506101f7565b50505050905090810190601f16801561023f5780820380516001836020036101000a031916815260200191505b509250505060405180910390f35b6102796004803603602081101561026357600080fd5b81019080803590602001909291905050506107c2565b6040518080602001828103825283818151815260200191508051906020019080838360005b838110156102b957808201518184015260208101905061029e565b50505050905090810190601f1680156102e65780820380516001836020036101000a031916815260200191505b509250505060405180910390f35b61057c600480360360a081101561030a57600080fd5b810190808035906020019064010000000081111561032757600080fd5b82018360208201111561033957600080fd5b8035906020019184600183028401116401000000008311171561035b57600080fd5b91908080601f016020809104026020016040519081016040528093929190818152602001838380828437600081840152601f19601f82011690508083019250505050505050919291929080359060200190929190803590602001906401000000008111156103c857600080fd5b8201836020820111156103da57600080fd5b803590602001918460018302840111640100000000831117156103fc57600080fd5b91908080601f016020809104026020016040519081016040528093929190818152602001838380828437600081840152601f19601f8201169050808301925050505050505091929192908035906020019064010000000081111561045f57600080fd5b82018360208201111561047157600080fd5b8035906020019184600183028401116401000000008311171561049357600080fd5b91908080601f016020809104026020016040519081016040528093929190818152602001838380828437600081840152601f19601f820116905080830192505050505050509192919290803590602001906401000000008111156104f657600080fd5b82018360208201111561050857600080fd5b8035906020019184600183028401116401000000008311171561052a57600080fd5b91908080601f016020809104026020016040519081016040528093929190818152602001838380828437600081840152601f19601f82011690508083019250505050505050919291929050505061087b565b005b6105aa6004803603602081101561059457600080fd5b8101908080359060200190929190505050610b2c565b6040518080602001828103825283818151815260200191508051906020019080838360005b838110156105ea5780820151818401526020810190506105cf565b50505050905090810190601f1680156106175780820380516001836020036101000a031916815260200191505b509250505060405180910390f35b60006002828154811061063457fe5b90600052602060002001549050919050565b6000600154905090565b60606000828154811061065f57fe5b906000526020600020018054600181600116156101000203166002900480601f0160208091040260200160405190810160405280929190818152602001828054600181600116156101000203166002900480156106fd5780601f106106d2576101008083540402835291602001916106fd565b820191906000526020600020905b8154815290600101906020018083116106e057829003601f168201915b50505050509050919050565b60606004828154811061071857fe5b906000526020600020018054600181600116156101000203166002900480601f0160208091040260200160405190810160405280929190818152602001828054600181600116156101000203166002900480156107b65780601f1061078b576101008083540402835291602001916107b6565b820191906000526020600020905b81548152906001019060200180831161079957829003601f168201915b50505050509050919050565b6060600582815481106107d157fe5b906000526020600020018054600181600116156101000203166002900480601f01602080910402602001604051908101604052809291908181526020018280546001816001161561010002031660029004801561086f5780601f106108445761010080835404028352916020019161086f565b820191906000526020600020905b81548152906001019060200180831161085257829003601f168201915b50505050509050919050565b600015156006866040518082805190602001908083835b602083106108b55780518252602082019150602081019050602083039250610892565b6001836020036101000a038019825116818451168082178552505050505050905001915050908152602001604051809103902060009054906101000a900460ff1615151461096b576040517f08c379a000000000000000000000000000000000000000000000000000000000815260040180806020018281038252600d8152602001807f616c72656164792061646465640000000000000000000000000000000000000081525060200191505060405180910390fd5b60008590806001815401808255809150509060018203906000526020600020016000909192909190915090805190602001906109a8929190610be5565b50506001806000828254019250508190555060016006866040518082805190602001908083835b602083106109f257805182526020820191506020810190506020830392506109cf565b6001836020036101000a038019825116818451168082178552505050505050905001915050908152602001604051809103902060006101000a81548160ff02191690831515021790555060028490806001815401808255809150509060018203906000526020600020016000909192909190915055506003839080600181540180825580915050906001820390600052602060002001600090919290919091509080519060200190610aa5929190610be5565b50506004829080600181540180825580915050906001820390600052602060002001600090919290919091509080519060200190610ae4929190610be5565b50506005819080600181540180825580915050906001820390600052602060002001600090919290919091509080519060200190610b23929190610be5565b50505050505050565b606060038281548110610b3b57fe5b906000526020600020018054600181600116156101000203166002900480601f016020809104026020016040519081016040528092919081815260200182805460018160011615610100020316600290048015610bd95780601f10610bae57610100808354040283529160200191610bd9565b820191906000526020600020905b815481529060010190602001808311610bbc57829003601f168201915b50505050509050919050565b828054600181600116156101000203166002900490600052602060002090601f016020900481019282601f10610c2657805160ff1916838001178555610c54565b82800160010185558215610c54579182015b82811115610c53578251825591602001919060010190610c38565b5b509050610c619190610c65565b5090565b610c8791905b80821115610c83576000816000905550600101610c6b565b5090565b9056fea165627a7a72305820fe35bae195687ec025f322cbde1d4ec2cd58a4dc3867160d8403ae60ad20bbc50029",
  "source": "pragma solidity ^ 0.5.7;\r\n\r\ncontract DataStorage {\r\n  string[] ipfsHashs;\r\n  uint Nbdata=0;\r\n  uint[] addate;\r\n  string[] sizes;\r\n  string[] dataname;\r\n  string[] datatype ;\r\n  mapping (string => bool) added;\r\n  function set(string memory x, uint datenow, string memory size, string memory name, string memory datatp) public{\r\n    require(added[x]==false, \"already added\");\r\n    ipfsHashs.push(x);\r\n    Nbdata += 1;\r\n    added[x] = true;\r\n    addate.push(datenow);\r\n    sizes.push(size);\r\n    dataname.push(name);\r\n\r\n    datatype.push(datatp);\r\n  }\r\n\r\n  function get(uint id) public view returns (string memory) {\r\n    return ipfsHashs[id];\r\n  }\r\n  function getdates(uint id)public view returns (uint){\r\n   return addate[id];\r\n  }\r\n  function getsizes(uint id)public view returns (string memory){\r\n   return sizes[id];\r\n  }\r\n  function getNbdata()public view returns (uint){\r\n      return (Nbdata);\r\n  }\r\n   function getdatatype(uint id)public view returns (string memory){\r\n      return datatype[id];\r\n  }\r\n   function getdataname(uint id)public view returns (string memory){\r\n      return dataname[id];\r\n  }\r\n}",
  "sourcePath": "/home/cnd/mygalaxy/src/blockchainend/contracts/DataStorage.sol",
  "compiler": {
    "name": "solc",
    "version": "0.5.7+commit.6da8b019.Emscripten.clang"
  },
  "schemaVersion": "3.0.23",
  "updatedAt": "2020-02-05T22:06:12.271Z",
  "networkType": "ethereum",
  "devdoc": {
    "methods": {}
  },
  "userdoc": {
    "methods": {}
  }
}