{
  "contractName": "Seller",
  "abi": [
    {
      "anonymous": false,
      "inputs": [
        {
          "indexed": false,
          "name": "ProductId",
          "type": "uint256"
        }
      ],
      "name": "ProductAdded",
      "type": "event"
    },
    {
      "anonymous": false,
      "inputs": [
        {
          "indexed": false,
          "name": "CustomerId",
          "type": "uint256"
        },
        {
          "indexed": false,
          "name": "OrderId",
          "type": "uint256"
        },
        {
          "indexed": false,
          "name": "status",
          "type": "bool"
        }
      ],
      "name": "ProcessedOrder",
      "type": "event"
    },
    {
      "constant": false,
      "inputs": [
        {
          "name": "ProductName",
          "type": "bytes32"
        },
        {
          "name": "price",
          "type": "uint256"
        }
      ],
      "name": "AddProduct",
      "outputs": [],
      "payable": false,
      "stateMutability": "nonpayable",
      "type": "function"
    },
    {
      "constant": false,
      "inputs": [
        {
          "name": "OrderId",
          "type": "uint256"
        },
        {
          "name": "idCustomer",
          "type": "uint256"
        }
      ],
      "name": "processOrder",
      "outputs": [],
      "payable": false,
      "stateMutability": "nonpayable",
      "type": "function"
    },
    {
      "constant": true,
      "inputs": [
        {
          "name": "ProductId",
          "type": "uint256"
        }
      ],
      "name": "getProduct",
      "outputs": [
        {
          "name": "",
          "type": "bytes32"
        },
        {
          "name": "",
          "type": "uint256"
        }
      ],
      "payable": false,
      "stateMutability": "view",
      "type": "function"
    },
    {
      "constant": true,
      "inputs": [
        {
          "name": "OrderId",
          "type": "uint256"
        }
      ],
      "name": "getStatus",
      "outputs": [
        {
          "name": "",
          "type": "bool"
        }
      ],
      "payable": false,
      "stateMutability": "view",
      "type": "function"
    },
    {
      "constant": true,
      "inputs": [],
      "name": "getTotalNumberOfAvailableProducts",
      "outputs": [
        {
          "name": "",
          "type": "uint256"
        }
      ],
      "payable": false,
      "stateMutability": "view",
      "type": "function"
    },
    {
      "constant": true,
      "inputs": [],
      "name": "getTotalNumberOfOrdersProcessed",
      "outputs": [
        {
          "name": "",
          "type": "uint256"
        }
      ],
      "payable": false,
      "stateMutability": "view",
      "type": "function"
    }
  ],
  "bytecode": "0x608060405234801561001057600080fd5b506103ce806100206000396000f3fe608060405234801561001057600080fd5b506004361061007f576000357c0100000000000000000000000000000000000000000000000000000000900480633946abfd146100845780635c622a0e146100a2578063804544c4146100e85780639d75dddd14610120578063b9db15b414610158578063c4ba7f87146101a1575b600080fd5b61008c6101bf565b6040518082815260200191505060405180910390f35b6100ce600480360360208110156100b857600080fd5b81019080803590602001909291905050506101c9565b604051808215151515815260200191505060405180910390f35b61011e600480360360408110156100fe57600080fd5b8101908080359060200190929190803590602001909291905050506101f6565b005b6101566004803603604081101561013657600080fd5b8101908080359060200190929190803590602001909291905050506102c0565b005b6101846004803603602081101561016e57600080fd5b810190808035906020019092919050505061035f565b604051808381526020018281526020019250505060405180910390f35b6101a9610399565b6040518082815260200191505060405180910390f35b6000600154905090565b60006003600083815260200190815260200160002060020160009054906101000a900460ff169050919050565b60405180606001604052808281526020018381526020016001151581525060036000848152602001908152602001600020600082015181600001556020820151816001015560408201518160020160006101000a81548160ff0219169083151502179055509050506001600081548092919060010191905055507f1c4c05b6318d57a96e72154448eda5f57584092a610203ca89ac870b91cd20ca818360016040518084815260200183815260200182151515158152602001935050505060405180910390a15050565b6000806000815480929190600101919050559050604051806060016040528082815260200184815260200183815250600260008381526020019081526020016000206000820151816000015560208201518160010155604082015181600201559050507f4fc9d5acc453e78e01b205af5788a1c62f195c4b5cdc8eb8f1c670863b7e736a816040518082815260200191505060405180910390a1505050565b6000806002600084815260200190815260200160002060010154600260008581526020019081526020016000206002015491509150915091565b6000805490509056fea165627a7a723058200b6525151240e671835955aff0326f41977ec2646cd540766e0afce7903da7fe0029",
  "source": "pragma solidity ^ 0.5.7;\r\n// We have to specify what version of compiler this code will compile with\r\n\r\ncontract Seller {\r\n\r\n  /* Events */\r\n  event ProductAdded(uint ProductId);\r\n  event ProcessedOrder(uint CustomerId, uint OrderId, bool status);\r\n\r\n  struct Product {\r\n    uint ProductId;\r\n    bytes32 ProductName;\r\n    uint price;\r\n  }\r\n\r\n  struct Order{\r\n    uint CustomerId;\r\n    uint OrderId;\r\n    bool status;\r\n  }\r\n\r\n  // STATE Variables.\r\n  uint numberOfProductsAvailableForSale;\r\n  uint numberOfOrdersProcessed;\r\n\r\n  // Mappings \r\n  mapping (uint => Product) Products;\r\n  mapping (uint => Order) Orders;\r\n\r\n\r\n  /* TRANSACTIONS */\r\n  function AddProduct(bytes32 ProductName, uint price) public {\r\n    uint ProductId = numberOfProductsAvailableForSale++;\r\n    Products[ProductId] = Product(ProductId, ProductName, price);\r\n    emit ProductAdded(ProductId);\r\n  }\r\n\r\n  function processOrder(uint OrderId, uint idCustomer) public {\r\n    Orders[OrderId] = Order(idCustomer, OrderId, true);\r\n    numberOfOrdersProcessed ++;\r\n    emit ProcessedOrder(idCustomer, OrderId, true);\r\n  }\r\n\r\n  /* GETTERS */\r\n  function getProduct(uint ProductId) view public returns(bytes32, uint){\r\n    /*returns ProductName and its price*/\r\n    return (Products[ProductId].ProductName, Products[ProductId].price);\r\n  }\r\n\r\n  function getStatus(uint OrderId) view public returns(bool) {\r\n    /*returns completion status*/\r\n    return (Orders[OrderId].status);\r\n  }\r\n\r\n  function getTotalNumberOfAvailableProducts() view public returns (uint) {\r\n    return numberOfProductsAvailableForSale;\r\n  }\r\n\r\n  function getTotalNumberOfOrdersProcessed() view public returns (uint){\r\n    return numberOfOrdersProcessed;\r\n  }\r\n\r\n}",
  "sourcePath": "D:/galaxy/src/blockchainend/contracts/Seller.sol",
  "compiler": {
    "name": "solc",
    "version": "0.5.7+commit.6da8b019.Emscripten.clang"
  },
  "schemaVersion": "3.0.9",
  "updatedAt": "2020-01-31T16:15:39.513Z",
  "devdoc": {
    "methods": {}
  },
  "userdoc": {
    "methods": {}
  }
}